:02000000014BB2
:200008000000E2FBEAF2802C0000E0FBEAF08024E6B50202EBF62200E2B50202EBF22200DE
:20002800E0B50202EBF02230F6E0A88220F5D3EAC6F582228B822230F6E6A88220F5D980EE
:01004800CFE8
:0200A400014910
:0200490001E2D2
:2000A600AE82AF83758901758CFA758ADFD28C308DFDC28CC28D1EBEFF011FEE4F70E82299
:2000C600AE82AF83C2A3EE4F60FC8E828F83C007C00611A6D006D007B2A380EA9001F40162
:0100E600C653
:0200EB00DFFA3A
:06007A00E478FFF6D8FD5A
:200058007900E94400601B7A009000ED780175A000E493F2A308B8000205A0D9F4DAF27561
:02007800A0FFE7
:200080007800E84400600A790175A000E4F309D8FC7800E84400600C7900900001E4F0A37E
:0400A000D8FCD9FAB5
:0D004B007581071200E7E58260030200499D
:0400E70075820022FC
:00000001FF
